{
  "contractName": "Bank",
  "abi": [
    {
      "anonymous": false,
      "inputs": [
        {
          "indexed": false,
          "internalType": "uint256",
          "name": "accountNumber",
          "type": "uint256"
        },
        {
          "indexed": false,
          "internalType": "string",
          "name": "name",
          "type": "string"
        }
      ],
      "name": "AccountCreated",
      "type": "event"
    },
    {
      "inputs": [
        {
          "internalType": "uint256",
          "name": "",
          "type": "uint256"
        }
      ],
      "name": "accounts",
      "outputs": [
        {
          "internalType": "string",
          "name": "name",
          "type": "string"
        },
        {
          "internalType": "uint256",
          "name": "accountNumber",
          "type": "uint256"
        },
        {
          "internalType": "uint256",
          "name": "balance",
          "type": "uint256"
        },
        {
          "internalType": "uint256",
          "name": "pin",
          "type": "uint256"
        },
        {
          "internalType": "bool",
          "name": "exists",
          "type": "bool"
        }
      ],
      "stateMutability": "view",
      "type": "function",
      "constant": true
    },
    {
      "inputs": [
        {
          "internalType": "string",
          "name": "_name",
          "type": "string"
        },
        {
          "internalType": "uint256",
          "name": "_accountNumber",
          "type": "uint256"
        },
        {
          "internalType": "uint256",
          "name": "_initialDeposit",
          "type": "uint256"
        },
        {
          "internalType": "uint256",
          "name": "_pin",
          "type": "uint256"
        }
      ],
      "name": "createAccount",
      "outputs": [],
      "stateMutability": "nonpayable",
      "type": "function"
    },
    {
      "inputs": [
        {
          "internalType": "uint256",
          "name": "_accountNumber",
          "type": "uint256"
        },
        {
          "internalType": "uint256",
          "name": "_pin",
          "type": "uint256"
        }
      ],
      "name": "checkBalance",
      "outputs": [
        {
          "internalType": "uint256",
          "name": "",
          "type": "uint256"
        }
      ],
      "stateMutability": "view",
      "type": "function",
      "constant": true
    }
  ],
  "bytecode": "0x608060405234801561001057600080fd5b50610985806100206000396000f3fe608060405234801561001057600080fd5b50600436106100415760003560e01c80632a1d36c414610046578063b471f40a14610062578063f2a40db814610092575b600080fd5b610060600480360381019061005b91906104c6565b6100c6565b005b61007c6004803603810190610077919061056a565b610202565b6040516100899190610777565b60405180910390f35b6100ac60048036038101906100a79190610541565b6102db565b6040516100bd9594939291906106bd565b60405180910390f35b60008084815260200190815260200160002060040160009054906101000a900460ff1615610129576040517f08c379a000000000000000000000000000000000000000000000000000000000815260040161012090610757565b60405180910390fd5b6040518060a001604052808581526020018481526020018381526020018281526020016001151581525060008085815260200190815260200160002060008201518160000190805190602001906101819291906103a6565b5060208201518160010155604082015181600201556060820151816003015560808201518160040160006101000a81548160ff0219169083151502179055509050507f4406213a6636a645b4f8ae705de381db1cd81c92d6a1b1b7bebefc6f41598d4a83856040516101f4929190610792565b60405180910390a150505050565b600080600084815260200190815260200160002060040160009054906101000a900460ff16610266576040517f08c379a000000000000000000000000000000000000000000000000000000000815260040161025d90610717565b60405180910390fd5b8160008085815260200190815260200160002060030154146102bd576040517f08c379a00000000000000000000000000000000000000000000000000000000081526004016102b490610737565b60405180910390fd5b60008084815260200190815260200160002060020154905092915050565b60006020528060005260406000206000915090508060000180546102fe90610897565b80601f016020809104026020016040519081016040528092919081815260200182805461032a90610897565b80156103775780601f1061034c57610100808354040283529160200191610377565b820191906000526020600020905b81548152906001019060200180831161035a57829003601f168201915b5050505050908060010154908060020154908060030154908060040160009054906101000a900460ff16905085565b8280546103b290610897565b90600052602060002090601f0160209004810192826103d4576000855561041b565b82601f106103ed57805160ff191683800117855561041b565b8280016001018555821561041b579182015b8281111561041a5782518255916020019190600101906103ff565b5b509050610428919061042c565b5090565b5b8082111561044557600081600090555060010161042d565b5090565b600061045c610457846107f3565b6107c2565b90508281526020810184848401111561047457600080fd5b61047f848285610855565b509392505050565b600082601f83011261049857600080fd5b81356104a8848260208601610449565b91505092915050565b6000813590506104c081610938565b92915050565b600080600080608085870312156104dc57600080fd5b600085013567ffffffffffffffff8111156104f657600080fd5b61050287828801610487565b9450506020610513878288016104b1565b9350506040610524878288016104b1565b9250506060610535878288016104b1565b91505092959194509250565b60006020828403121561055357600080fd5b6000610561848285016104b1565b91505092915050565b6000806040838503121561057d57600080fd5b600061058b858286016104b1565b925050602061059c858286016104b1565b9150509250929050565b6105af8161083f565b82525050565b60006105c082610823565b6105ca818561082e565b93506105da818560208601610864565b6105e381610927565b840191505092915050565b60006105fb60168361082e565b91507f4163636f756e7420646f6573206e6f74206578697374000000000000000000006000830152602082019050919050565b600061063b600d8361082e565b91507f496e636f72726563742050494e000000000000000000000000000000000000006000830152602082019050919050565b600061067b60168361082e565b91507f4163636f756e7420616c726561647920657869737473000000000000000000006000830152602082019050919050565b6106b78161084b565b82525050565b600060a08201905081810360008301526106d781886105b5565b90506106e660208301876106ae565b6106f360408301866106ae565b61070060608301856106ae565b61070d60808301846105a6565b9695505050505050565b60006020820190508181036000830152610730816105ee565b9050919050565b600060208201905081810360008301526107508161062e565b9050919050565b600060208201905081810360008301526107708161066e565b9050919050565b600060208201905061078c60008301846106ae565b92915050565b60006040820190506107a760008301856106ae565b81810360208301526107b981846105b5565b90509392505050565b6000604051905081810181811067ffffffffffffffff821117156107e9576107e86108f8565b5b8060405250919050565b600067ffffffffffffffff82111561080e5761080d6108f8565b5b601f19601f8301169050602081019050919050565b600081519050919050565b600082825260208201905092915050565b60008115159050919050565b6000819050919050565b82818337600083830152505050565b60005b83811015610882578082015181840152602081019050610867565b83811115610891576000848401525b50505050565b600060028204905060018216806108af57607f821691505b602082108114156108c3576108c26108c9565b5b50919050565b7f4e487b7100000000000000000000000000000000000000000000000000000000600052602260045260246000fd5b7f4e487b7100000000000000000000000000000000000000000000000000000000600052604160045260246000fd5b6000601f19601f8301169050919050565b6109418161084b565b811461094c57600080fd5b5056fea26469706673582212209b965e75d5ce3d83bbce6b5d98507c4adc878b2db2060b82f8cd64b48244951664736f6c63430008000033",
  "immutableReferences": {},
  "source": "// SPDX-License-Identifier: MIT\r\npragma solidity ^0.8.0;\r\n\r\ncontract Bank{\r\n    // Struct to store account details\r\n    struct Account {\r\n        string name;\r\n        uint256 accountNumber;\r\n        uint256 balance;\r\n        uint256 pin;\r\n        bool exists;\r\n    }\r\n\r\n    // Mapping to store user accounts by account number\r\n    mapping(uint256 => Account) public accounts;\r\n\r\n    // Event for account creation\r\n    event AccountCreated(uint256 accountNumber, string name);\r\n\r\n    // Create a new account with name, account number, initial balance , and pin\r\n    function createAccount(\r\n        string memory _name,\r\n        uint256 _accountNumber,\r\n        uint256 _initialDeposit,\r\n        uint256 _pin\r\n        )public {\r\n            // Ensure the account doesn't already exist\r\n            require(!accounts[_accountNumber].exists, \"Account already exists\");\r\n\r\n            // Create new account and store it in the mapping\r\n            accounts[_accountNumber] = Account({\r\n                name: _name,\r\n                accountNumber: _accountNumber,\r\n                balance: _initialDeposit,\r\n                pin: _pin,\r\n                exists: true\r\n            });\r\n\r\n            // Emit event for account creation\r\n            emit AccountCreated(_accountNumber, _name);\r\n        }\r\n\r\n        // Check balance by providing account number and pin\r\n        function checkBalance(uint256 _accountNumber, uint256 _pin) public view returns (uint256) {\r\n            // Ensure the account exists\r\n            require(accounts[_accountNumber].exists, \"Account does not exist\");\r\n\r\n            // Ensure the provided pin matches the stored pin\r\n            require(accounts[_accountNumber].pin == _pin, \"Incorrect PIN\");\r\n\r\n            // Return the account balance\r\n            return accounts[_accountNumber].balance;\r\n        }\r\n}",
  "sourcePath": "C:\\Users\\Asus\\Desktop\\DappBank\\contracts\\Bank.sol",
  "compiler": {
    "name": "solc",
    "version": "0.8.0+commit.c7dfd78e.Emscripten.clang"
  },
  "schemaVersion": "3.4.16",
  "updatedAt": "2025-02-04T23:28:28.683Z",
  "networkType": "ethereum",
  "devdoc": {
    "kind": "dev",
    "methods": {},
    "version": 1
  },
  "userdoc": {
    "kind": "user",
    "methods": {},
    "version": 1
  }
}