{
    "contractName": "LandRegistry",
    "abi": [
        {
            "anonymous": false,
            "inputs": [
                {
                    "indexed": true,
                    "internalType": "uint256",
                    "name": "landId",
                    "type": "uint256"
                },
                {
                    "indexed": false,
                    "internalType": "string",
                    "name": "location",
                    "type": "string"
                },
                {
                    "indexed": false,
                    "internalType": "uint256",
                    "name": "area",
                    "type": "uint256"
                },
                {
                    "indexed": true,
                    "internalType": "address",
                    "name": "owner",
                    "type": "address"
                }
            ],
            "name": "LandRegistered",
            "type": "event"
        },
        {
            "anonymous": false,
            "inputs": [
                {
                    "indexed": true,
                    "internalType": "uint256",
                    "name": "landId",
                    "type": "uint256"
                },
                {
                    "indexed": true,
                    "internalType": "address",
                    "name": "oldOwner",
                    "type": "address"
                },
                {
                    "indexed": true,
                    "internalType": "address",
                    "name": "newOwner",
                    "type": "address"
                }
            ],
            "name": "OwnershipTransferred",
            "type": "event"
        },
        {
            "inputs": [
                {
                    "internalType": "uint256",
                    "name": "",
                    "type": "uint256"
                }
            ],
            "name": "lands",
            "outputs": [
                {
                    "internalType": "uint256",
                    "name": "id",
                    "type": "uint256"
                },
                {
                    "internalType": "string",
                    "name": "location",
                    "type": "string"
                },
                {
                    "internalType": "uint256",
                    "name": "area",
                    "type": "uint256"
                },
                {
                    "internalType": "address",
                    "name": "owner",
                    "type": "address"
                },
                {
                    "internalType": "bool",
                    "name": "registered",
                    "type": "bool"
                }
            ],
            "stateMutability": "view",
            "type": "function",
            "constant": true
        },
        {
            "inputs": [
                {
                    "internalType": "uint256",
                    "name": "_id",
                    "type": "uint256"
                },
                {
                    "internalType": "string",
                    "name": "_location",
                    "type": "string"
                },
                {
                    "internalType": "uint256",
                    "name": "_area",
                    "type": "uint256"
                }
            ],
            "name": "registerLand",
            "outputs": [],
            "stateMutability": "nonpayable",
            "type": "function"
        },
        {
            "inputs": [
                {
                    "internalType": "uint256",
                    "name": "_id",
                    "type": "uint256"
                },
                {
                    "internalType": "address",
                    "name": "_newOwner",
                    "type": "address"
                }
            ],
            "name": "transferOwnership",
            "outputs": [],
            "stateMutability": "nonpayable",
            "type": "function"
        },
        {
            "inputs": [
                {
                    "internalType": "uint256",
                    "name": "_id",
                    "type": "uint256"
                }
            ],
            "name": "getLand",
            "outputs": [
                {
                    "internalType": "uint256",
                    "name": "",
                    "type": "uint256"
                },
                {
                    "internalType": "string",
                    "name": "",
                    "type": "string"
                },
                {
                    "internalType": "uint256",
                    "name": "",
                    "type": "uint256"
                },
                {
                    "internalType": "address",
                    "name": "",
                    "type": "address"
                },
                {
                    "internalType": "bool",
                    "name": "",
                    "type": "bool"
                }
            ],
            "stateMutability": "view",
            "type": "function",
            "constant": true
        },
        {
            "inputs": [
                {
                    "internalType": "uint256",
                    "name": "_id",
                    "type": "uint256"
                }
            ],
            "name": "isLandRegistered",
            "outputs": [
                {
                    "internalType": "bool",
                    "name": "",
                    "type": "bool"
                }
            ],
            "stateMutability": "view",
            "type": "function",
            "constant": true
        }
    ],
    "bytecode": "0x608060405234801561001057600080fd5b50610dbe806100206000396000f3fe608060405234801561001057600080fd5b50600436106100575760003560e01c806329507f731461005c5780632e8782bc1461007857806398f1c340146100a8578063e261f1e5146100c4578063f02dd53f146100f8575b600080fd5b610076600480360381019061007191906108be565b61012c565b005b610092600480360381019061008d9190610895565b6102f2565b60405161009f9190610aad565b60405180910390f35b6100c260048036038101906100bd91906108fa565b61031e565b005b6100de60048036038101906100d99190610895565b6104c4565b6040516100ef959493929190610b58565b60405180910390f35b610112600480360381019061010d9190610895565b6105af565b604051610123959493929190610b58565b60405180910390f35b600080600084815260200190815260200160002090508060030160149054906101000a900460ff16610193576040517f08c379a000000000000000000000000000000000000000000000000000000000815260040161018a90610af8565b60405180910390fd5b3373ffffffffffffffffffffffffffffffffffffffff168160030160009054906101000a900473ffffffffffffffffffffffffffffffffffffffff1673ffffffffffffffffffffffffffffffffffffffff1614610225576040517f08c379a000000000000000000000000000000000000000000000000000000000815260040161021c90610b38565b60405180910390fd5b60008160030160009054906101000a900473ffffffffffffffffffffffffffffffffffffffff169050828260030160006101000a81548173ffffffffffffffffffffffffffffffffffffffff021916908373ffffffffffffffffffffffffffffffffffffffff1602179055508273ffffffffffffffffffffffffffffffffffffffff168173ffffffffffffffffffffffffffffffffffffffff16857f16b85f49bf01212961345d3016c9a531894accf62eb7680f2045d79185cc0ec060405160405180910390a450505050565b600080600083815260200190815260200160002060030160149054906101000a900460ff169050919050565b60008084815260200190815260200160002060030160149054906101000a900460ff1615610381576040517f08c379a000000000000000000000000000000000000000000000000000000000815260040161037890610b18565b60405180910390fd5b6040518060a001604052808481526020018381526020018281526020013373ffffffffffffffffffffffffffffffffffffffff168152602001600115158152506000808581526020019081526020016000206000820151816000015560208201518160010190805190602001906103f9929190610760565b506040820151816002015560608201518160030160006101000a81548173ffffffffffffffffffffffffffffffffffffffff021916908373ffffffffffffffffffffffffffffffffffffffff16021790555060808201518160030160146101000a81548160ff0219169083151502179055509050503373ffffffffffffffffffffffffffffffffffffffff16837f53a976a9b9d61df3bb2e08e33448938aea67fb03572279eb18ed48cdd6fad04e84846040516104b7929190610ac8565b60405180910390a3505050565b60006020528060005260406000206000915090508060000154908060010180546104ed90610cb9565b80601f016020809104026020016040519081016040528092919081815260200182805461051990610cb9565b80156105665780601f1061053b57610100808354040283529160200191610566565b820191906000526020600020905b81548152906001019060200180831161054957829003601f168201915b5050505050908060020154908060030160009054906101000a900473ffffffffffffffffffffffffffffffffffffffff16908060030160149054906101000a900460ff16905085565b600060606000806000806000808881526020019081526020016000206040518060a0016040529081600082015481526020016001820180546105f090610cb9565b80601f016020809104026020016040519081016040528092919081815260200182805461061c90610cb9565b80156106695780601f1061063e57610100808354040283529160200191610669565b820191906000526020600020905b81548152906001019060200180831161064c57829003601f168201915b50505050508152602001600282015481526020016003820160009054906101000a900473ffffffffffffffffffffffffffffffffffffffff1673ffffffffffffffffffffffffffffffffffffffff1673ffffffffffffffffffffffffffffffffffffffff1681526020016003820160149054906101000a900460ff16151515158152505090508060800151610733576040517f08c379a000000000000000000000000000000000000000000000000000000000815260040161072a90610af8565b60405180910390fd5b80600001518160200151826040015183606001518460800151955095509550955095505091939590929450565b82805461076c90610cb9565b90600052602060002090601f01602090048101928261078e57600085556107d5565b82601f106107a757805160ff19168380011785556107d5565b828001600101855582156107d5579182015b828111156107d45782518255916020019190600101906107b9565b5b5090506107e291906107e6565b5090565b5b808211156107ff5760008160009055506001016107e7565b5090565b600061081661081184610be3565b610bb2565b90508281526020810184848401111561082e57600080fd5b610839848285610c77565b509392505050565b60008135905061085081610d5a565b92915050565b600082601f83011261086757600080fd5b8135610877848260208601610803565b91505092915050565b60008135905061088f81610d71565b92915050565b6000602082840312156108a757600080fd5b60006108b584828501610880565b91505092915050565b600080604083850312156108d157600080fd5b60006108df85828601610880565b92505060206108f085828601610841565b9150509250929050565b60008060006060848603121561090f57600080fd5b600061091d86828701610880565b935050602084013567ffffffffffffffff81111561093a57600080fd5b61094686828701610856565b925050604061095786828701610880565b9150509250925092565b61096a81610c2f565b82525050565b61097981610c41565b82525050565b600061098a82610c13565b6109948185610c1e565b93506109a4818560208601610c86565b6109ad81610d49565b840191505092915050565b60006109c5601383610c1e565b91507f4c616e64206e6f742072656769737465726564000000000000000000000000006000830152602082019050919050565b6000610a05601783610c1e565b91507f4c616e6420616c726561647920726567697374657265640000000000000000006000830152602082019050919050565b6000610a45602583610c1e565b91507f4f6e6c7920746865206f776e65722063616e207472616e73666572206f776e6560008301527f72736869700000000000000000000000000000000000000000000000000000006020830152604082019050919050565b610aa781610c6d565b82525050565b6000602082019050610ac26000830184610970565b92915050565b60006040820190508181036000830152610ae2818561097f565b9050610af16020830184610a9e565b9392505050565b60006020820190508181036000830152610b11816109b8565b9050919050565b60006020820190508181036000830152610b31816109f8565b9050919050565b60006020820190508181036000830152610b5181610a38565b9050919050565b600060a082019050610b6d6000830188610a9e565b8181036020830152610b7f818761097f565b9050610b8e6040830186610a9e565b610b9b6060830185610961565b610ba86080830184610970565b9695505050505050565b6000604051905081810181811067ffffffffffffffff82111715610bd957610bd8610d1a565b5b8060405250919050565b600067ffffffffffffffff821115610bfe57610bfd610d1a565b5b601f19601f8301169050602081019050919050565b600081519050919050565b600082825260208201905092915050565b6000610c3a82610c4d565b9050919050565b60008115159050919050565b600073ffffffffffffffffffffffffffffffffffffffff82169050919050565b6000819050919050565b82818337600083830152505050565b60005b83811015610ca4578082015181840152602081019050610c89565b83811115610cb3576000848401525b50505050565b60006002820490506001821680610cd157607f821691505b60208210811415610ce557610ce4610ceb565b5b50919050565b7f4e487b7100000000000000000000000000000000000000000000000000000000600052602260045260246000fd5b7f4e487b7100000000000000000000000000000000000000000000000000000000600052604160045260246000fd5b6000601f19601f8301169050919050565b610d6381610c2f565b8114610d6e57600080fd5b50565b610d7a81610c6d565b8114610d8557600080fd5b5056fea2646970667358221220c6b2a13234e1c7e665b38eb253196c5a462c39f1696e736b46c82907fa1bb7b964736f6c63430008000033",
    "immutableReferences": {},
    "source": "// SPDX-License-Identifier: MIT\r\npragma solidity ^0.8.0;\r\n\r\ncontract LandRegistry {\r\n    // Structure to represent a land parcel\r\n    struct Land {\r\n        uint256 id;\r\n        string location;\r\n        uint256 area; // Area in square meters\r\n        address owner;\r\n        bool registered;\r\n    }\r\n\r\n    // Mapping from land ID to Land details\r\n    mapping(uint256 => Land) public lands;\r\n\r\n    // Event emitted when a new land is registered\r\n    event LandRegistered(uint256 indexed landId, string location, uint256 area, address indexed owner);\r\n\r\n    // Event emitted when land ownership is transferred\r\n    event OwnershipTransferred(uint256 indexed landId, address indexed oldOwner, address indexed newOwner);\r\n\r\n    // Register a new land parcel\r\n    function registerLand(uint256 _id, string memory _location, uint256 _area) public {\r\n        require(!lands[_id].registered, \"Land already registered\");\r\n\r\n        lands[_id] = Land({\r\n            id: _id,\r\n            location: _location,\r\n            area: _area,\r\n            owner: msg.sender,\r\n            registered: true\r\n        });\r\n\r\n        emit LandRegistered(_id, _location, _area, msg.sender);\r\n    }\r\n\r\n    // Transfer ownership of a land parcel\r\n    function transferOwnership(uint256 _id, address _newOwner) public {\r\n        Land storage land = lands[_id];\r\n        require(land.registered, \"Land not registered\");\r\n        require(land.owner == msg.sender, \"Only the owner can transfer ownership\");\r\n\r\n        address oldOwner = land.owner;\r\n        land.owner = _newOwner;\r\n\r\n        emit OwnershipTransferred(_id, oldOwner, _newOwner);\r\n    }\r\n\r\n    // Get land details\r\n    function getLand(uint256 _id) public view returns (uint256, string memory, uint256, address, bool) {\r\n        Land memory land = lands[_id];\r\n        require(land.registered, \"Land not registered\");\r\n\r\n        return (land.id, land.location, land.area, land.owner, land.registered);\r\n    }\r\n\r\n    // Check if land is registered\r\n    function isLandRegistered(uint256 _id) public view returns (bool) {\r\n        return lands[_id].registered;\r\n    }\r\n}\r\n",
    "sourcePath": "C:\\Users\\thiya\\OneDrive\\Desktop\\DAPPBANK\\contracts\\Bank.sol",
    "compiler": {
        "name": "solc",
        "version": "0.8.0+commit.c7dfd78e.Emscripten.clang"
    },
    "schemaVersion": "3.4.16",
    "updatedAt": "2025-02-03T15:43:43.667Z",
    "networkType": "ethereum",
    "devdoc": {
        "kind": "dev",
        "methods": {},
        "version": 1
    },
    "userdoc": {
        "kind": "user",
        "methods": {},
        "version": 1
    }
}